:100000000C946F000C9497000C9497000C9497003C
:100010000C9497000C9497000C9497000C94970004
:100020000C9497000C9497000C9497000C949700F4
:100030000C9497000C9497000C9497000C949700E4
:100040000C94DF020C9497000C944F030C9429033A
:100050000C9497000C9497000C9497000C949700C4
:100060000C9497000C9497000664EC1B3C04BC169F
:100070003E3BE5B93CC93C37C29E5A3D66049808F0
:100080003EEA69AAAA3E000000803F000000000886
:10009000000201000003040700000000000000004F
:1000A00000000000250028002B00000000002400B4
:1000B00027002A00040404040404040402020202C7
:1000C000020203030303030301020408102040801B
:1000D0000102040810200102040810201305112455
:1000E0001FBECFEFD8E0DEBFCDBF11E0A0E0B1E092
:1000F000E6EBF0E102C005900D92A632B107D9F708
:1001000021E0A6E2B1E001C01D92A83DB207E1F7EF
:1001100010E0CFE6D0E004C02197FE010E94530812
:10012000CE36D107C9F70E9481030C9459080C946C
:10013000000090E0FC01E853FF4F24918C549F4F46
:10014000FC018491882399F090E0880F991FFC01AD
:10015000E655FF4FA591B491FC01E056FF4F859104
:1001600094918FB7F894EC91E22BEC938FBF0895A4
:1001700090E0FC01E457FF4F2491FC01E853FF4F4E
:100180003491FC01EC54FF4FE491EE23C9F022239B
:1001900039F0233001F1A8F4213019F1223029F18E
:1001A000F0E0EE0FFF1FE056FF4FA591B4918FB71F
:1001B000F894EC91611126C030953E233C938FBF9B
:1001C00008952730A9F02830C9F0243049F78091EC
:1001D00080008F7D03C0809180008F7780938000A6
:1001E000DFCF84B58F7784BDDBCF84B58F7DFBCF28
:1001F0008091B0008F778093B000D2CF8091B00013
:100200008F7DF9CF3E2BDACF1F93CF93DF93182F3B
:10021000EB010E949900209739F460E0812FDF9173
:10022000CF911F910C94B800CF3FD10511F461E03C
:10023000F5CFE12FF0E0E457FF4FE491E33031F1E7
:1002400040F4E130B1F0E230E1F0C038D1057CF7A4
:10025000E4CFE73029F1E83059F1E430B1F780918B
:100260008000806280938000D0938B00C0938A00CE
:1002700004C084B5806884BDC7BDDF91CF911F9154
:10028000089584B5806284BDC8BDF7CF8091800099
:10029000806880938000D0938900C0938800EDCF60
:1002A0008091B00080688093B000C093B300E5CF28
:1002B0008091B00080628093B000C093B400DDCF25
:1002C000AF92BF92CF92DF92EF92FF920F931F9364
:1002D000CF93DF936C017B018B01040F151FEB01A2
:1002E0005E01AE18BF08C017D10759F06991D60159
:1002F000ED91FC910190F081E02DC6010995892BCB
:1003000079F7C501DF91CF911F910F91FF90EF9089
:10031000DF90CF90BF90AF900895FC01538D448D36
:10032000252F30E0842F90E0821B930B541710F0A0
:10033000CF96089501970895FC01918D828D9817AD
:1003400061F0A28DAE0FBF2FB11D5D968C91928D85
:100350009F5F9F73928F90E008958FEF9FEF0895B6
:10036000FC01918D828D981731F0828DE80FF11D7F
:10037000858D90E008958FEF9FEF0895FC01918D9A
:10038000228D892F90E0805C9F4F821B91098F7393
:10039000992708958BE391E00E94BE0121E0892B0B
:1003A00009F420E0822F089580E090E0892B29F065
:1003B0000E94CA0181110C9400000895FC01A48DD3
:1003C000A80FB92FB11DA35ABF4F2C91848D90E077
:1003D00001968F739927848FA689B7892C93A0895A
:1003E000B1898C91837080648C93938D848D9813E4
:1003F00006C00288F389E02D80818F7D8083089577
:10040000EF92FF920F931F93CF93DF93EC0181E064
:10041000888F9B8D8C8D98131AC0E889F98980810B
:1004200085FF15C09FB7F894EE89FF896083E8893E
:10043000F98980818370806480839FBF81E090E030
:10044000DF91CF911F910F91FF90EF900895F62EBD
:100450000B8D10E00F5F1F4F0F731127E02E8C8D57
:100460008E110CC00FB607FCFACFE889F98980819C
:1004700085FFF5CFCE010E94DE01F1CFEB8DEC0FB1
:10048000FD2FF11DE35AFF4FF0829FB7F8940B8FB9
:10049000EA89FB8980818062CFCFCF93DF93EC0123
:1004A000888D8823B9F0AA89BB89E889F9898C915C
:1004B00085FD03C0808186FD0DC00FB607FCF7CF18
:1004C0008C9185FFF2CF808185FFEDCFCE010E9418
:1004D000DE01E9CFDF91CF910895FC01019000206A
:1004E000E9F73197AF01481B590BBC018BE391E051
:1004F0000C9460018F929F92AF92BF920F931F93C3
:10050000CF93DF93CDB7DEB7A1970FB6F894DEBFD8
:100510000FBECDBF19A2423008F44AE08E010F5D34
:100520001F4F842E912CB12CA12CA50194010E9467
:100530006A05E62FB901CA01EA30F4F4E05DD8019A
:10054000EE938D01232B242B252B79F790E080E06F
:10055000109719F0CD010E946D02A1960FB6F89484
:10056000DEBF0FBECDBFDF91CF911F910F91BF9026
:10057000AF909F908F900895E95CE1CFCF92DF928A
:10058000EF92FF92CF93DF936B017C016DE28BE3DF
:1005900091E00E940002EC0166277727CB016C19DD
:1005A0007D098E099F094AE00E947A028C0F9D1FE7
:1005B000DF91CF91FF90EF90DF90CF9008951F9241
:1005C0000F920FB60F9211242F933F938F939F9307
:1005D000AF93BF938091370190913801A091390179
:1005E000B0913A013091360123E0230F2D3758F5B1
:1005F0000196A11DB11D2093360180933701909380
:100600003801A0933901B0933A0180913201909161
:100610003301A0913401B09135010196A11DB11DA6
:100620008093320190933301A0933401B09335014C
:10063000BF91AF919F918F913F912F910F900FBEDE
:100640000F901F90189526E8230F0296A11DB11D4B
:10065000D2CF1F920F920FB60F9211242F933F9378
:100660004F935F936F937F938F939F93AF93BF93BA
:10067000EF93FF938BE391E00E94DE01FF91EF91F6
:10068000BF91AF919F918F917F916F915F914F91AA
:100690003F912F910F900FBE0F901F9018951F92B2
:1006A0000F920FB60F9211242F938F939F93EF9376
:1006B000FF93E0914B01F0914C018081E091510159
:1006C000F091520182FD1BC09081809154018F5F97
:1006D0008F7320915501821741F0E0915401F0E0B1
:1006E000E55CFE4F958F80935401FF91EF919F91B0
:1006F0008F912F910F900FBE0F901F9018958081B2
:10070000F4CFCF93DF9300D000D0CDB7DEB778948D
:1007100084B5826084BD84B5816084BD85B5826006
:1007200085BD85B5816085BD80916E0081608093B7
:100730006E00109281008091810082608093810020
:100740008091810081608093810080918000816030
:10075000809380008091B10084608093B10080918B
:10076000B00081608093B00080917A0084608093B3
:100770007A0080917A00826080937A0080917A007A
:10078000816080937A0080917A00806880937A00FB
:100790001092C100E0914B01F0914C0182E0808306
:1007A000E0914701F09148011082E0914901F091F8
:1007B0004A018FEC808310925301E0914F01F09138
:1007C000500186E08083E0914D01F0914E018081DF
:1007D00080618083E0914D01F0914E0180818860BD
:1007E0008083E0914D01F0914E018081806880838B
:1007F000E0914D01F0914E0180818F7D808387E0F3
:100800000E94990086E00E94990085E00E9499006C
:1008100084E00E9499008AE00E94990089E00E9489
:10082000990044244A9483E0582E612C712C92E361
:10083000292E312C24E1C22ED12CE12CF12C00E008
:1008400010E061E087E00E94B80060E086E00E946E
:10085000B80061E085E00E94B80060E084E00E949A
:10086000B80081E480937C0080917A00806480935A
:100870007A0080917A0086FDFCCFA0917800B0913B
:1008800079002AE530E00E944C08A30192010E9401
:100890004005CA01B9016D52710981099109072EFC
:1008A000000C880B990B0E94400625E33AEF4EE8B6
:1008B0005CE30E94CC060E94390720E030E040E86B
:1008C0005EE30E94CC064B015C01AC019B0160E041
:1008D00070E080E89FE30E949B0520E030E040E26A
:1008E00052E40E94CC060E94080670933101609386
:1008F000300120E030E040E85FE3C501B4010E9430
:100900009C0520E030E040E252E40E94CC060E94C8
:10091000080670932F0160932E0182E191E00E94FE
:100920006D0260912E0170912F01072E000C880B33
:10093000990B97FF70C00E94BE0288E191E00E946F
:100940006D028CE191E00E946D0260913001709126
:100950003101072E000C880B990B97FF60C00E9495
:10096000BE0282E291E00E946D028EE190E09093DF
:100970002D0180932C0130922B0120922A0120918D
:10098000300130913101032E000C440B550B2E51D8
:10099000310941095109AEEFB0E00E945F05A7019E
:1009A00096010E94400529833A834B835C838981A9
:1009B0009A81909329018093280120912E013091F2
:1009C0002F01032E000C440B550B2E513109410908
:1009D0005109AEEFB0E00E945F05A70196010E94A9
:1009E00040054901309327012093260169817A81CE
:1009F0008AE00E940401B40189E00E94040101150B
:100A0000110509F41ECF0E94CA01882309F419CFE9
:100A10000E94000016CF4AE00E947A028ECF4AE080
:100A20000E947A029ECFEBE3F1E01382128288EEFD
:100A300093E0A0E0B0E084839583A683B78384E04D
:100A400091E09183808385EC90E09587848784ECA6
:100A500090E09787868780EC90E0918B808B81EC8B
:100A600090E0938B828B82EC90E0958B848B86EC6C
:100A700090E0978B868B118E128E138E148E0895B4
:100A8000052E97FB1EF400940E94570557FD07D0D2
:100A90000E946A0507FC03D04EF40C94570550954C
:100AA0004095309521953F4F4F4F5F4F089590955A
:100AB0008095709561957F4F8F4F9F4F08950E944D
:100AC0008C05A59F900DB49F900DA49F800D911D46
:100AD00011240895A1E21A2EAA1BBB1BFD010DC013
:100AE000AA1FBB1FEE1FFF1FA217B307E407F507DE
:100AF00020F0A21BB30BE40BF50B661F771F881FBA
:100B0000991F1A9469F760957095809590959B014F
:100B1000AC01BD01CF010895A29FB001B39FC001F8
:100B2000A39F700D811D1124911DB29F700D811D19
:100B30001124911D08955058BB27AA270E94B30580
:100B40000C9492060E94840638F00E948B0620F0D6
:100B500039F49F3F19F426F40C9481060EF4E095C5
:100B6000E7FB0C947B06E92F0E94A30658F3BA1703
:100B7000620773078407950720F079F4A6F50C94B3
:100B8000C5060EF4E0950B2EBA2FA02D0B01B9016E
:100B900090010C01CA01A0011124FF27591B99F0F3
:100BA000593F50F4503E68F11A16F040A22F232FFF
:100BB000342F4427585FF3CF469537952795A7954F
:100BC000F0405395C9F77EF41F16BA0B620B730BF6
:100BD000840BBAF09150A1F0FF0FBB1F661F771F67
:100BE000881FC2F70EC0BA0F621F731F841F48F41C
:100BF000879577956795B795F7959E3F08F0B0CFA5
:100C00009395880F08F09927EE0F9795879508958B
:100C10000E940F066894B1110C94C60608950E94B4
:100C2000AB0688F09F5798F0B92F9927B751B0F0CD
:100C3000E1F0660F771F881F991F1AF0BA95C9F760
:100C400014C0B13091F00E94C506B1E008950C9433
:100C5000C506672F782F8827B85F39F0B93FCCF3E6
:100C6000869577956795B395D9F73EF490958095DD
:100C7000709561957F4F8F4F9F4F0895E89409C0FD
:100C800097FB3EF490958095709561957F4F8F4FBF
:100C90009F4F9923A9F0F92F96E9BB279395F695D5
:100CA000879577956795B795F111F8CFFAF4BB0F53
:100CB00011F460FF1BC06F5F7F4F8F4F9F4F16C0B7
:100CC000882311F096E911C0772321F09EE8872F41
:100CD000762F05C0662371F096E8862F70E060E0FD
:100CE0002AF09A95660F771F881FDAF7880F969576
:100CF000879597F9089597F99F6780E870E060E01D
:100D000008959FEF80EC089500240A9416161706A4
:100D100018060906089500240A94121613061406EC
:100D200005060895092E0394000C11F4882352F04F
:100D3000BB0F40F4BF2B11F460FF04C06F5F7F4F07
:100D40008F4F9F4F089557FD9058440F551F59F0EE
:100D50005F3F71F04795880F97FB991F61F09F3FA8
:100D600079F087950895121613061406551FF2CFD1
:100D70004695F1DF08C0161617061806991FF1CF21
:100D800086957105610508940895E894BB27662748
:100D90007727CB0197F908950E94DF060C949206FD
:100DA0000E94840638F00E948B0620F0952311F0F3
:100DB0000C947B060C94810611240C94C6060E94A8
:100DC000A30670F3959FC1F3950F50E0551F629FE6
:100DD000F001729FBB27F00DB11D639FAA27F00D94
:100DE000B11DAA1F649F6627B00DA11D661F829FBB
:100DF0002227B00DA11D621F739FB00DA11D621FA0
:100E0000839FA00D611D221F749F3327A00D611DBC
:100E1000231F849F600D211D822F762F6A2F11249E
:100E20009F5750409AF0F1F088234AF0EE0FFF1FD1
:100E3000BB1F661F771F881F91505040A9F79E3F28
:100E4000510580F00C947B060C94C6065F3FE4F3DA
:100E5000983ED4F3869577956795B795F795E7957E
:100E60009F5FC1F7FE2B880F911D9695879597F987
:100E70000895DF93D92F0E947407E695D7952AED40
:100E80003FE049E45FE3B33A6207730784079507DD
:100E9000D7953AF0A2EA49EC90680E94B3050E9407
:100EA0009206E8E6F0E00E945E07DD0F13F00E9474
:100EB0009D07DD0F0BF49058DF9108959F938F935A
:100EC0007F936F93FF93EF939B01AC010E94CC063D
:100ED000EF91FF910E9425082F913F914F915F91D3
:100EE0000C94CC060C9481060E94AB06D8F3E894CF
:100EF000E0E0BB279F57F0F02AED3FE049EC06C049
:100F0000EE0FBB0F661F771F881F28F0B23A6207EB
:100F10007307840728F0B25A620B730B840BE395B6
:100F20009A9572F7803830F49A95BB0F661F771F39
:100F3000881FD2F790480C9419089B01AC0160E01F
:100F400070E080E89FE30C94A5070E94B9070C9419
:100F500092060E948B0658F00E94840640F029F405
:100F60005F3F29F00C947B0651110C94C6060C943B
:100F700081060E94A30668F39923B1F3552391F3E8
:100F8000951B550BBB27AA2762177307840738F0F8
:100F90009F5F5F4F220F331F441FAA1FA9F335D055
:100FA0000E2E3AF0E0E832D091505040E695001C09
:100FB000CAF72BD0FE2F29D0660F771F881FBB1FC3
:100FC000261737074807AB07B0E809F0BB0B802DA1
:100FD000BF01FF2793585F4F3AF09E3F510578F0CD
:100FE0000C947B060C94C6065F3FE4F3983ED4F362
:100FF000869577956795B795F7959F5FC9F7880FA1
:10100000911D9695879597F90895E1E0660F771FF2
:10101000881FBB1F621773078407BA0720F0621B83
:10102000730B840BBA0BEE1F88F7E09508959F3F72
:1010300031F0915020F4879577956795B795880F93
:10104000911D9695879597F90895DF93CF931F93F8
:101050000F93FF92EF92DF927B018C01689406C0A0
:10106000DA2EEF010E94DF06FE01E894A59125919A
:10107000359145915591A6F3EF010E94B305FE010C
:101080009701A801DA9469F7DF90EF90FF900F9134
:101090001F91CF91DF9108950E948C05B7FF0895AD
:1010A000821B930B0895EE0FFF1F0590F491E02D26
:0610B0000994F894FFCF43
:1010B60000000000000260018D014D02BE019C018E
:1010C600B001566C203D2000202020005672203DA5
:0610D60020000D0A0000DD
:00000001FF
