:020000040000FA
:100000000C946F000C9497000C9497000C9497003C
:100010000C9497000C9497000C9497000C94970004
:100020000C9497000C9497000C9497000C949700F4
:100030000C9497000C9497000C9497000C949700E4
:100040000C94C0020C9497000C9430030C940A0397
:100050000C9497000C9497000C9497000C949700C4
:100060000C9497000C9497000664EC1B3C04BC169F
:100070003E3BE5B93CC93C37C29E5A3D66049808F0
:100080003EEA69AAAA3E000000803F000000000886
:10009000000201000003040700000000000000004F
:1000A00000000000250028002B00000000002400B4
:1000B00027002A00040404040404040402020202C7
:1000C000020203030303030301020408102040801B
:1000D000010204081020010204081020C1041124A8
:1000E0001FBECFEFD8E0DEBFCDBF11E0A0E0B1E092
:1000F000ECE4F0E102C005900D92A833B107D9F706
:1001000021E0A8E3B1E001C01D92A43EB207E1F7EF
:1001100010E0CFE6D0E004C02197FE010E941E0847
:10012000CE36D107C9F70E9462030C9424080C94C0
:10013000000090E0FC01E853FF4F24918C549F4F46
:10014000FC018491882399F090E0880F991FFC01AD
:10015000E655FF4FA591B491FC01E056FF4F859104
:1001600094918FB7F894EC91E22BEC938FBF0895A4
:1001700090E0FC01E457FF4F2491FC01E853FF4F4E
:100180003491FC01EC54FF4FE491EE23C9F022239B
:1001900039F0233001F1A8F4213019F1223029F18E
:1001A000F0E0EE0FFF1FE056FF4FA591B4918FB71F
:1001B000F894EC91611126C030953E233C938FBF9B
:1001C00008952730A9F02830C9F0243049F78091EC
:1001D00080008F7D03C0809180008F7780938000A6
:1001E000DFCF84B58F7784BDDBCF84B58F7DFBCF28
:1001F0008091B0008F778093B000D2CF8091B00013
:100200008F7DF9CF3E2BDACF3FB7F8948091430131
:1002100090914401A0914501B091460126B5A89B5B
:1002200005C02F3F19F00196A11DB11D3FBFBA2F88
:10023000A92F982F8827BC01CD01620F711D811D48
:10024000911D42E0660F771F881F991F4A95D1F7CD
:100250000895AF92BF92CF92DF92EF92FF920F93E9
:100260001F93CF93DF936C017B018B01040F151F4C
:10027000EB015E01AE18BF08C017D10759F06991B4
:10028000D601ED91FC910190F081E02DC601099518
:10029000892B79F7C501DF91CF911F910F91FF90C5
:1002A000EF90DF90CF90BF90AF900895FC01538DF9
:1002B000448D252F30E0842F90E0821B930B541740
:1002C00010F0CF96089501970895FC01918D828DCD
:1002D000981761F0A28DAE0FBF2FB11D5D968C9166
:1002E000928D9F5F9F73928F90E008958FEF9FEFA5
:1002F0000895FC01918D828D981731F0828DE80F61
:10030000F11D858D90E008958FEF9FEF0895FC011A
:10031000918D228D892F90E0805C9F4F821B9109E7
:100320008F739927089587E491E00E94870121E067
:10033000892B09F420E0822F089580E090E0892B3A
:1003400029F00E94930181110C9400000895FC0192
:10035000A48DA80FB92FB11DA35ABF4F2C91848D26
:1003600090E001968F739927848FA689B7892C9383
:10037000A089B1898C91837080648C93938D848DD6
:10038000981306C00288F389E02D80818F7D8083D9
:100390000895EF92FF920F931F93CF93DF93EC0199
:1003A00081E0888F9B8D8C8D98131AC0E889F9891C
:1003B000808185FF15C09FB7F894EE89FF8960831F
:1003C000E889F98980818370806480839FBF81E0A0
:1003D00090E0DF91CF911F910F91FF90EF900895E2
:1003E000F62E0B8D10E00F5F1F4F0F731127E02EBD
:1003F0008C8D8E110CC00FB607FCFACFE889F989F5
:10040000808185FFF5CFCE010E94A701F1CFEB8D52
:10041000EC0FFD2FF11DE35AFF4FF0829FB7F894C8
:100420000B8FEA89FB8980818062CFCFCF93DF93E6
:10043000EC01888D8823B9F0AA89BB89E889F989FC
:100440008C9185FD03C0808186FD0DC00FB607FC31
:10045000F7CF8C9185FFF2CF808185FFEDCFCE0164
:100460000E94A701E9CFDF91CF910895FC0101908F
:100470000020E9F73197AF01481B590BBC0187E415
:1004800091E00C9429018F929F92AF92BF920F93AB
:100490001F93CF93DF93CDB7DEB7A1970FB6F89434
:1004A000DEBF0FBECDBF19A2423008F44AE08E0174
:1004B0000F5D1F4F842E912CB12CA12CA50194010E
:1004C0000E940D05E62FB901CA01EA30F4F4E05D9F
:1004D000D801EE938D01232B242B252B79F790E067
:1004E00080E0109719F0CD010E943602A1960FB658
:1004F000F894DEBF0FBECDBFDF91CF911F910F915A
:10050000BF90AF909F908F900895E95CE1CFCF921C
:10051000DF92EF92FF92CF93DF936B017C016DE24C
:1005200087E491E00E94C901EC0166277727CB019F
:100530006C197D098E099F094AE00E9443028C0FC5
:100540009D1FDF91CF91FF90EF90DF90CF900895A6
:10055000CF93DF93BC01990F880B990B97FF0CC0C9
:100560000E948702EC0182E191E00E9436028C0F2A
:100570009D1FDF91CF9108954AE00E944302F2CF80
:100580001F920F920FB60F9211242F933F938F93C8
:100590009F93AF93BF9380913F0190914001A091B1
:1005A0004101B091420130913E0123E0230F2D37EC
:1005B00058F50196A11DB11D20933E0180933F0186
:1005C00090934001A0934101B09342018091430177
:1005D00090914401A0914501B09146010196A11D61
:1005E000B11D8093430190934401A0934501B093C2
:1005F0004601BF91AF919F918F913F912F910F90A5
:100600000FBE0F901F90189526E8230F0296A11D8C
:10061000B11DD2CF1F920F920FB60F9211242F93BC
:100620003F934F935F936F937F938F939F93AF937A
:10063000BF93EF93FF9387E491E00E94A701FF919E
:10064000EF91BF91AF919F918F917F916F915F914A
:100650004F913F912F910F900FBE0F901F901895C3
:100660001F920F920FB60F9211242F938F939F9387
:10067000EF93FF93E0915701F09158018081E09151
:100680005D01F0915E0182FD1BC09081809160014F
:100690008F5F8F7320916101821741F0E0916001BB
:1006A000F0E0E95BFE4F958F80936001FF91EF9141
:1006B0009F918F912F910F900FBE0F901F901895C3
:1006C0008081F4CF789484B5826084BD84B58160E4
:1006D00084BD85B5826085BD85B5816085BD80910D
:1006E0006E00816080936E00109281008091810085
:1006F000826080938100809181008160809381007D
:10070000809180008160809380008091B10084603E
:100710008093B1008091B00081608093B00080919F
:100720007A00846080937A0080917A00826080935E
:100730007A0080917A00816080937A0080917A00BB
:10074000806880937A001092C100E0915701F09187
:10075000580182E08083E0915301F09154011082AE
:10076000E0915501F09156018FEC808310925F016A
:10077000E0915B01F0915C0186E08083E09159019A
:10078000F0915A01808180618083E0915901F0915C
:100790005A01808188608083E0915901F0915A016B
:1007A000808180688083E0915901F0915A018081B5
:1007B0008F7D808387E00E94990086E00E949900E7
:1007C00085E00E94990084E00E9499008AE00E94DE
:1007D000990089E00E94990091E4392E44244A94BA
:1007E00023E0522E612C712C08E210E0C0E0D0E032
:1007F00061E087E00E94B80060E086E00E94B800F7
:1008000061E085E00E94B80060E084E00E94B800EA
:1008100030927C0080917A00806480937A0080918D
:100820007A0086FDFCCFA0917800B09179002AE58E
:1008300030E00E940308A30192010E94EE04DA0155
:10084000C9018D97A109B10990933D0180933C01A5
:10085000BC01990F880B990B0E9455060E944E0708
:100860009B01AC0160E070E080E090E40E94AB0589
:100870006B017C010E941D06AB01C801BA010E94F8
:10088000EF07072E000C880B990B0E9455064B01B1
:100890005C01AC019B01C701B6010E94E1060E9408
:1008A0001D0670933B0160933A0120E030E0A901FE
:1008B000C701B6010E943F05A50194010E94E1060F
:1008C0000E941D06709339016093380185E191E023
:1008D0000E94360260913A0170913B01072E000C94
:1008E000880B990B97FF49C00E9487028BE191E02A
:1008F0000E9436028FE191E00E9436028091380119
:10090000909139010E94A80285E291E00E9436028E
:1009100080913C0190913D010E94A8020E94040137
:100920004B015C0184E6C82ED12CE12CF12C0E94F5
:100930000401681979098A099B09683E7340810599
:100940009105A8F321E0C21AD108E108F10888EE68
:10095000880E83E0981EA11CB11CC114D104E104CF
:10096000F10429F7209709F443CF0E9493018823CB
:1009700009F43ECF0E9400003BCF4AE00E944302B0
:10098000B5CFE7E4F1E01382128288EE93E0A0E0B5
:10099000B0E084839583A683B78384E091E091835C
:1009A000808385EC90E09587848784EC90E097873E
:1009B000868780EC90E0918B808B81EC90E0938B2C
:1009C000828B82EC90E0958B848B86EC90E0978B09
:1009D000868B118E128E138E148E0895052E97FB22
:1009E0001EF400940E94050557FD07D00E940D05D6
:1009F00007FC03D04EF40C940505509540953095B6
:100A000021953F4F4F4F5F4F08959095809570957A
:100A100061957F4F8F4F9F4F0895A1E21A2EAA1B19
:100A2000BB1BFD010DC0AA1FBB1FEE1FFF1FA2179E
:100A3000B307E407F50720F0A21BB30BE40BF50B9B
:100A4000661F771F881F991F1A9469F76095709524
:100A5000809590959B01AC01BD01CF010895A29FA7
:100A6000B001B39FC001A39F700D811D1124911D82
:100A7000B29F700D811D1124911D08955058BB2700
:100A8000AA270E9456050C94A7060E94990638F0E2
:100A90000E94A00620F039F49F3F19F426F40C942C
:100AA00096060EF4E095E7FB0C949006E92F0E9461
:100AB000B80658F3BA17620773078407950720F042
:100AC00079F4A6F50C94DA060EF4E0950B2EBA2F05
:100AD000A02D0B01B90190010C01CA01A001112444
:100AE000FF27591B99F0593F50F4503E68F11A16F0
:100AF000F040A22F232F342F4427585FF3CF469581
:100B000037952795A795F0405395C9F77EF41F16A2
:100B1000BA0B620B730B840BBAF09150A1F0FF0F6C
:100B2000BB1F661F771F881FC2F70EC0BA0F621F58
:100B3000731F841F48F4879577956795B795F79548
:100B40009E3F08F0B0CF9395880F08F09927EE0FDD
:100B50009795879508950E94BF050C94A7060E945B
:100B6000A00658F00E94990640F029F45F3F29F052
:100B70000C94900651110C94DB060C9496060E947E
:100B8000B80668F39923B1F3552391F3951B550BE0
:100B9000BB27AA2762177307840738F09F5F5F4F50
:100BA000220F331F441FAA1FA9F335D00E2E3AF08F
:100BB000E0E832D091505040E695001CCAF72BD0A7
:100BC000FE2F29D0660F771F881FBB1F26173707F8
:100BD0004807AB07B0E809F0BB0B802DBF01FF272A
:100BE00093585F4F3AF09E3F510578F00C94900671
:100BF0000C94DB065F3FE4F3983ED4F3869577953B
:100C00006795B795F7959F5FC9F7880F911D9695E2
:100C1000879597F90895E1E0660F771F881FBB1F3E
:100C2000621773078407BA0720F0621B730B840BEB
:100C3000BA0BEE1F88F7E09508950E942406689489
:100C4000B1110C94DB0608950E94C00688F09F57EE
:100C500098F0B92F9927B751B0F0E1F0660F771FE0
:100C6000881F991F1AF0BA95C9F714C0B13091F0D6
:100C70000E94DA06B1E008950C94DA06672F782F07
:100C80008827B85F39F0B93FCCF38695779567959B
:100C9000B395D9F73EF490958095709561957F4F07
:100CA0008F4F9F4F0895E89409C097FB3EF49095AD
:100CB0008095709561957F4F8F4F9F4F9923A9F035
:100CC000F92F96E9BB279395F695879577956795C4
:100CD000B795F111F8CFFAF4BB0F11F460FF1BC008
:100CE0006F5F7F4F8F4F9F4F16C0882311F096E99B
:100CF00011C0772321F09EE8872F762F05C0662349
:100D000071F096E8862F70E060E02AF09A95660F01
:100D1000771F881FDAF7880F9695879597F90895BA
:100D200097F99F6780E870E060E008959FEF80EC9E
:100D3000089500240A941616170618060906089541
:100D400000240A9412161306140605060895092EA7
:100D50000394000C11F4882352F0BB0F40F4BF2B16
:100D600011F460FF04C06F5F7F4F8F4F9F4F089556
:100D700057FD9058440F551F59F05F3F71F047954C
:100D8000880F97FB991F61F09F3F79F08795089531
:100D9000121613061406551FF2CF4695F1DF08C050
:100DA000161617061806991FF1CF8695710561056D
:100DB00008940895E894BB2766277727CB0197F915
:100DC00008950E94F4060C94A7060E94990638F034
:100DD0000E94A00620F0952311F00C9490060C942C
:100DE000960611240C94DB060E94B80670F3959FBA
:100DF000C1F3950F50E0551F629FF001729FBB2712
:100E0000F00DB11D639FAA27F00DB11DAA1F649FAD
:100E10006627B00DA11D661F829F2227B00DA11D60
:100E2000621F739FB00DA11D621F839FA00D611DE6
:100E3000221F749F3327A00D611D231F849F600D07
:100E4000211D822F762F6A2F11249F5750409AF030
:100E5000F1F088234AF0EE0FFF1FBB1F661F771FBC
:100E6000881F91505040A9F79E3F510580F00C9487
:100E700090060C94DB065F3FE4F3983ED4F386952E
:100E800077956795B795F795E7959F5FC1F7FE2B27
:100E9000880F911D9695879597F90895DF93D92F1F
:100EA0000E948907E695D7952AED3FE049E45FE384
:100EB000B33A6207730784079507D7953AF0A2EA19
:100EC00049EC90680E9456050E94A706E8E6F0E00B
:100ED0000E947307DD0F13F00E94B207DD0F0BF4C1
:100EE0009058DF9108959F938F937F936F93FF9313
:100EF000EF939B01AC010E94E106EF91FF910E94EC
:100F0000C8072F913F914F915F910C94E1060C948B
:100F100096060E94C006D8F3E894E0E0BB279F57EE
:100F2000F0F02AED3FE049EC06C0EE0FBB0F661F64
:100F3000771F881F28F0B23A62077307840728F0EA
:100F4000B25A620B730B840BE3959A9572F7803853
:100F500030F49A95BB0F661F771F881FD2F7904811
:100F60000C94BC079B01AC0160E070E080E89FE35B
:100F70000C94AB059F3F31F0915020F48795779505
:100F80006795B795880F911D9695879597F9089560
:100F9000DF93CF931F930F93FF92EF92DF927B012A
:100FA0008C01689406C0DA2EEF010E94F406FE015F
:100FB000E894A5912591359145915591A6F3EF01BE
:100FC0000E945605FE019701A801DA9469F7DF90A7
:100FD000EF90FF900F911F91CF91DF91089597FBB4
:100FE000072E16F4009407D077FD09D00E940A0856
:100FF00007FC05D03EF4909581959F4F089570951C
:1010000061957F4F08950E942F05B7FF0895821BB9
:10101000930B0895AA1BBB1B51E107C0AA1FBB1F5E
:10102000A617B70710F0A61BB70B881F991F5A9574
:10103000A9F780959095BC01CD010895EE0FFF1F93
:101040000590F491E02D0994F894FFCF0000000082
:10105000C9012901560116028701650179010D0AAE
:10106000005672203D200020202000566C203D209C
:10107000007374656572696E6720416E676C6520E8
:041080003D2000000F
:107E0000112484B714BE81FFF0D085E080938100F7
:107E100082E08093C00088E18093C10086E0809377
:107E2000C20080E18093C4008EE0C9D0259A86E02C
:107E300020E33CEF91E0309385002093840096BBD3
:107E4000B09BFECF1D9AA8958150A9F7CC24DD24C4
:107E500088248394B5E0AB2EA1E19A2EF3E0BF2EE7
:107E6000A2D0813461F49FD0082FAFD0023811F036
:107E7000013811F484E001C083E08DD089C08234E0
:107E800011F484E103C0853419F485E0A6D080C0E4
:107E9000853579F488D0E82EFF2485D0082F10E0AE
:107EA000102F00270E291F29000F111F8ED06801E7
:107EB0006FC0863521F484E090D080E0DECF843638
:107EC00009F040C070D06FD0082F6DD080E0C81688
:107ED00080E7D80618F4F601B7BEE895C0E0D1E017
:107EE00062D089930C17E1F7F0E0CF16F0E7DF06D8
:107EF00018F0F601B7BEE89568D007B600FCFDCFD4
:107F0000A601A0E0B1E02C9130E011968C91119780
:107F100090E0982F8827822B932B1296FA010C0160
:107F200087BEE89511244E5F5F4FF1E0A038BF0790
:107F300051F7F601A7BEE89507B600FCFDCF97BE46
:107F4000E89526C08437B1F42ED02DD0F82E2BD052
:107F50003CD0F601EF2C8F010F5F1F4F84911BD097
:107F6000EA94F801C1F70894C11CD11CFA94CF0C13
:107F7000D11C0EC0853739F428D08EE10CD085E9AC
:107F80000AD08FE07ACF813511F488E018D01DD067
:107F900080E101D065CF982F8091C00085FFFCCF94
:107FA0009093C60008958091C00087FFFCCF809118
:107FB000C00084FD01C0A8958091C6000895E0E648
:107FC000F0E098E1908380830895EDDF803219F02E
:107FD00088E0F5DFFFCF84E1DECF1F93182FE3DFCA
:107FE0001150E9F7F2DF1F91089580E0E8DFEE27F6
:047FF000FF270994CA
:027FFE00040479
:00000001FF
